:020000040000FA
:1000000081319F290134F7347E1480312E000F1C7A
:100010000A280B288A298E313E268031F200720888
:10002000F400442980307406031D172818281B2863
:1000300020000F16542920000F1254298030740616
:10004000031D2328242828282000EF01EF0A542923
:100050002000EF01542980307406031D3028312818
:100060003428F801F80A5429F8015429803074061C
:10007000031D3B283C2847282000D901DA01DB0179
:100080006030F2007208DC00DD01DE01542920003E
:10009000D901DA01DB012030F2007208DC004428CB
:1000A0007508F200F3017308003A0319582854291F
:1000B0007208223A03192B28103A03193628703A8D
:1000C00003191228803A03191E28303A03195429BB
:1000D000542954297508F200F3017308003A0319F2
:1000E000722854297208423A03196928B03A031950
:1000F00054295429780803197E287F289328FF3033
:10010000F20072082000D900FF30F2007208DA0015
:10011000C030F2007208DB00DC01DD015A30F20071
:100120007208DE0054292000D901DA01DB01DC016C
:10013000DD015A30F2007208DE00542978080319F4
:10014000A228A32893287F28573086316F26803134
:100150007408F2007208F5005429573086316F2672
:100160008031A8282000D901DA01DB01DC01DD01A2
:10017000DE01A828C030F20072082000D90040300B
:10018000F2007208DA0078080319C728C828CD28B9
:100190008030F2007208DB00CE28DB014030F20034
:1001A0007208DC008030F2007208DD00DE015429A4
:1001B0002000D901DA018030F2007208DB008030C3
:1001C000F2007208DC008030F2007208DD0050306E
:1001D000F2007208DE0054292000D901DA01403013
:1001E000F2007208DB00DC018030F2007208DD00F2
:1001F00045282000D901DA01DB012030F200720825
:10020000DC00DD01DE01A8282000D901DA01DA0ACC
:10021000FF30F2007208DB00FF30F2007208DC00F1
:10022000FF30F2007208DD00FF30F2007208DE00DD
:1002300054297408F200F3017308003A03192129C4
:1002400054297208023A03197A28103A03199E2891
:10025000303A0319B228103A0319F928703A0319F1
:10026000A428203A0319D828C03A0319BA28103A0A
:1002700003190429703A0319AD28203A0319EC2810
:10028000103A0319932854297608F200F3017308F1
:10029000003A03194C2919297208033A0319502806
:1002A000073A03196A28192920006F0803195929E8
:1002B0005A295F29CF30F2007208D7006D297808DB
:1002C00003196329642969299E30F2007208D70056
:1002D0006D298230F2007208D7007608573E8600FA
:1002E000870101088E3133268031200050087602C4
:1002F00003187B297C2980290130F2007208F60757
:100300000C12003200320032003220000C162E0097
:100310000F109D298C1E8D298E299D2920008F1E4E
:100320009229932998298F126B086D029C009B29B2
:100330008F166B089C002E008C127E1009008131F4
:10034000A129803102208131F800803103208131E0
:10035000F900AB3084008E308500503086000030CC
:1003600087000030FF001B308E3179268131F0305C
:100370008400233085000030FE000430FF008E3101
:100380006D268131F501F601F701EB01EC01ED017C
:10039000EE01EF01A0308400003085004030FE0007
:1003A0000030FF008E316D2681317E1020008F31AC
:1003B000A52F60308E31852681312000B9003908A3
:1003C000C20061308E31852681312000B9003908A4
:1003D000C30062308E31852681312000B900390892
:1003E000C40063308E31852681312000B900390880
:1003F000C50064308E31852681312000B90039086E
:10040000C60065308E31852681312000B90039085B
:10041000C70066308E31852681312000B900390849
:10042000C80067308E31852681312000B900390837
:10043000C900CA01CB0120004B08803AB9008030C6
:100440003902031D252A42084A020318282A292AAC
:10045000362AF0302000B9002630BA004A083907A1
:1004600086004B083A3D87008101832A20004B0813
:10047000803A803C031D3E2A4A0843020318412A61
:10048000422A542AF0302000B9002630BA004A0827
:100490003907BB004B083A3DBC003B0886003C08CE
:1004A0008700FF308100832A20004B08B0004A08F3
:1004B000AF004208B900BA013908B1003A08B200E9
:1004C0004308BB00BC013B08B3003C08B40000304B
:1004D000B500B600FF30B7000030B8008E31E62618
:1004E00081312000BD00F030BE002630BF004A0838
:1004F0003E07C0004B083F3DC10040088600410850
:1005000087003D0881004B08803AB90080303902ED
:10051000031D8C2A44084A0203188F2A902A9D2A18
:10052000F0302000B9002530BA004A0839078600AB
:100530004B083A3D87008101EA2A20004B08803AA7
:10054000803C031DA52A4A0845020318A82AA92AA7
:10055000BB2AF0302000B9002530BA004A0839071C
:10056000BB004B083A3DBC003B0886003C088700B6
:10057000FF308100EA2A20004B08B0004A08AF0093
:100580004408B900BA013908B1003A08B200450878
:10059000BB00BC013B08B3003C08B4000030B50010
:1005A000B600FF30B7000030B8008E31E62681314A
:1005B0002000BD00F030BE002530BF004A083E07D5
:1005C000C0004B083F3DC10040088600410887003D
:1005D0003D0881004B08803AB90080303902031D84
:1005E000F32A46084A020318F62AF72A042BF030A9
:1005F0002000B9002430BA004A08390786004B08A9
:100600003A3D87008101512B20004B08803A803C05
:10061000031D0C2B4A08470203180F2B102B222B0B
:10062000F0302000B9002430BA004A083907BB0076
:100630004B083A3DBC003B0886003C088700FF3071
:100640008100512B20004B08B0004A08AF0046083B
:10065000B900BA013908B1003A08B2004708BB0036
:10066000BC013B08B3003C08B4000030B500B60044
:10067000FF30B7000030B8008E31E626813120000F
:10068000BD00F030BE002430BF004A083E07C00065
:100690004B083F3DC10040088600410887003D08E7
:1006A00081004B08803AB90080303902031D5A2B73
:1006B00048084A0203185D2B5E2B6B2BF03020009C
:1006C000B9002330BA004A08390786004B083A3D82
:1006D00087008101B82B20004B08803A803C031D25
:1006E000732B4A0849020318762B772B892BF0309D
:1006F0002000B9002330BA004A083907BB004B0874
:100700003A3DBC003B0886003C088700FF30810072
:10071000B82B20004B08B0004A08AF004808B900C9
:10072000BA013908B1003A08B2004908BB00BC015F
:100730003B08B3003C08B4000030B500B600FF3001
:10074000B7000030B8008E31E62681312000BD00B0
:10075000F030BE002330BF004A083E07C0004B08FF
:100760003F3DC10040088600410887003D088100E8
:100770000130CA070030CB3D4B08803AB9008130C8
:100780003902031DC52B00304A02031CC82BC92B9C
:100790001B2A08008B130B1310302000A000003020
:1007A000A1008F310827833120002008A9002908E3
:1007B000AA001030A0000030A1008F31082783313B
:1007C00020002008A9002908AB001130A00000304B
:1007D000A1008F310827833120002008A9002908B3
:1007E000AC001130A0000030A1008F310827833108
:1007F00020002008A9002908AD001630A000003014
:10080000A1008F310827833120002008A900290882
:10081000AE001630A0000030A1008F3108278331D0
:1008200020002008A9002908AF001730A0000030E0
:10083000A1008F310827833120002008A900290852
:10084000B0001730A0000030A1008F31082783319D
:1008500020002008A9002908B100003085312B258F
:1008600083316F3020005606031D372C382C532C53
:100870003F305506031D3D2C3E2C532CAA01FF3062
:10088000A9002908AB00AC01FF30A9002908AD0080
:10089000AE01FF30A9002908AF00B001FF30A90068
:1008A0002908B100E12C7F305606031D582C592C25
:1008B000602CCF305506031D5E2C5F2C602CE12C84
:1008C0001030A0000030A1008F31082783312000B4
:1008D0002008A9002908B2001130A0000030A100B2
:1008E0008F310827833120002008A9002908B30090
:1008F0001630A0000030A1008F310827833120007E
:100900002008A9002908B4001730A0000030A10079
:100910008F310827833120002008A9002908B5005D
:1009200033082D020318952C962C9A2C3308A90015
:100930002908AD002C08330203189F2CA02CA42CEE
:100940003308A9002908AC0032082B020318A92C8F
:10095000AA2CAE2C3208A9002908AB002A083202C2
:100960000318B32CB42CB82C3208A9002908AA000B
:10097000350831020318BD2CBE2CC22C3508A90045
:100980002908B100300835020318C72CC82CCC2C1C
:100990003508A9002908B00034082F020318D12C0B
:1009A000D22CD62C3408A9002908AF002E08340216
:1009B0000318DB2CDC2C2D2C3408A9002908AE00F0
:1009C0002D2C2A08A9002908A00060308731DA27D9
:1009D000833120002B08A9002908A000613087314D
:1009E000DA27833120002C08A9002908A0006230F2
:1009F0008731DA27833120002D08A9002908A000BB
:100A000063308731DA27833120002E08A9002908B6
:100A1000A00064308731DA27833120002F08A90035
:100A20002908A00065308731DA278331200030089B
:100A3000A9002908A00066308731DA278331200019
:100A40003108A9002908A00067308731DA278331EF
:100A50008B170B1708002000A20000308C1B013000
:100A60002100C900003020000C1B01302100CB0008
:100A7000003020000D1801302100C8000030200097
:100A80008D1801302100CA00003020000F180130FD
:100A90002100CD00003020000E1901302100CE00D1
:100AA000003020000D1B01302100CC000030200060
:100AB0008D1B01302100CF00003020000C180130C8
:100AC0002100C000003020008C1901302100C2003C
:100AD000003020000C1901302100C100003020003E
:100AE0008C1801302100C300003020000D1A0130A5
:100AF0002100C400003020008D1A01302100C60002
:100B0000003020000D1901302100C5000030200008
:100B10008D1901302100C70008307702031C912D88
:100B2000922D932DF7017708C83E860087010108B2
:100B3000031D9B2D9C2DA52D01302000A0007708C2
:100B4000A83E86008701200881077708C03E8600FE
:100B500087010108031DAD2DAE2DB72D01302000FA
:100B6000A0007708A03E860087012008810777084B
:100B7000B83E860087017708C83E840085010008DA
:100B800001060319C42DC52DE02D7708A83E860067
:100B90008701810101302000A000770AD02DA03507
:100BA000890BCF2D2008A1002108D60422080319A3
:100BB000DA2DDB2DE02D7708D83E860087018101F4
:100BC0007708B03E860087017708C03E8400850123
:100BD000000801060319ED2DEE2D092E7708A03E21
:100BE00086008701810101302000A000770AF92DDD
:100BF000A035890BF82D2008A1002108D504220872
:100C00000319032E042E092E7708D03E8600870193
:100C100081017708A83E8600870103300102031C8A
:100C2000122E132E2D2E01302000A000770A192E2F
:100C3000A035890B182E2008FF3AA1002108D605FF
:100C400022080319242E252E2D2EFF30A000770810
:100C5000D83E86008701200881007708A03E8600E4
:100C6000870103300102031C362E372E512E01302E
:100C70002000A000770A3D2EA035890B3C2E2008CD
:100C8000FF3AA1002108D50522080319482E492E54
:100C9000512EFF30A0007708D03E86008701200843
:100CA00081007708C83E8600870101082000A00067
:100CB0007708B83E86008701200881007708C03E8B
:100CC000860087010108A0007708B03E86008701F2
:100CD000200881000130A0002008F7070800F1007B
:100CE0000530F00070082000D0005608F0007108B0
:100CF000023E86008701700881005508F0007108E7
:100D0000033E86008701700881007908F0007108B1
:100D1000043E86008701700881005408F0007108C5
:100D2000053E86008701700881005308F0007108B5
:100D3000063E86008701700881005208F0007108A5
:100D4000073E860087017008810078080319A92EE4
:100D5000AA2E0F2F1430F0007008D00021005A087E
:100D6000F0007108083E860087017008810058086D
:100D7000F0007108093E86008701700881005B0859
:100D8000F00071080A3E860087017008810059084A
:100D9000F00071080B3E860087017008810053083F
:100DA000F00071080C3E860087017008810052082F
:100DB000F00071080D3E860087017008810051081F
:100DC000F00071080E3E860087017008810050080F
:100DD000F00071080F3E86008701700881005508F9
:100DE000F0007108103E86008701700881005408E9
:100DF000F0007108113E86008701700881005708D5
:100E0000F0007108123E86008701700881005608C4
:100E1000F0007108133E8600870170088100080009
:100E200010302000A0000030A1008F31082787314A
:100E3000F0302000A9002630AA00200829078600EB
:100E400021082A3D870001088F3133278731200090
:100E5000AB002B08D3001130A0000030A1008F316F
:100E600008278731F0302000A9002530AA0020088B
:100E70002907860021082A3D870001088F31332782
:100E800087312000AB002B08D2001630A0000030C4
:100E9000A1008F3108278731F0302000A9002430CD
:100EA000AA0020082907860021082A3D870001089A
:100EB0008F31332787312000AB002B08F900173022
:100EC000A0000030A1008F3108278731F0302000CA
:100ED000A9002330AA0020082907860021082A3DFE
:100EE000870001088F31332787312000AB002B08A2
:100EF000D40008002000AC01A71F7F2F802F872F70
:100F0000A609A709A60A0319A70AAC01AC0AA91FDA
:100F10008A2F8B2F942FA809A909A80A0319A90AB7
:100F20000130AA002A08AC06AD01AE01260827044C
:100F300003199B2F9C2FCB2FAB01AB0AA82F01309D
:100F4000A635A70D890BA02F0130AA002A08AB07F0
:100F5000A71FAB2FAC2F9F2F0130AD35AE0D890BE6
:100F6000AD2F27082902031DB72F26082802031CCE
:100F7000BA2FBB2FC02F2608A8022708A93B2D1483
:100F80000130A736A60C890BC12F0130AB02031D1F
:100F9000CA2FCB2FAC2F2C080319CF2FD02FD52F32
:100FA000AD09AE09AD0A0319AE0A2E08A7002D0837
:100FB000A60008002000A10000308B1B0130A20019
:100FC0008B1330001E171E15F0309B0020002108E7
:100FD00030009A002000200830009C008E3144260A
:100FE000873130009E18F52FF62FF12F1E112000AB
:0E0FF00022080319FC2FFD2FFE2F8B1708007F
:101C6600F000700823008C00080023000F1C3C2E97
:101C76003D2E382E08008E3138268E3123000C0872
:101C86000800553030009F00AA309F009E140800BF
:101C960055303D008F00AA308F008F010800553067
:101CA6003D008F00AA308F0001308F000800200011
:101CB60094162108EC002008EB006D089C00080033
:101CC600043021009300940195019A013F30980059
:101CD600931708006400800101310130FE020030D4
:101CE600FF3B7F087E04031D6E2E0034FE001200AB
:101CF6001E000130FE020030FF3B7F087E04031DFC
:101D06007A2E00342000A10030001E17F0309B0010
:101D16002000210830009A001E141C082000A00094
:101D26002008A200220808002000A300231D9C2EE4
:101D36009D2EA12E220823008F00A52E2008220406
:101D460023008F00200023082104230090000800B0
:101D560009340334F734F734F734FF34FF349E3450
:101D66005A34003400340034003400340034003473
:101D760000340034003400340034003400340034BD
:101D86000034003400342000A401A501201CCC2E10
:101D9600CD2ED12E2208A4072308A53D0130A23559
:101DA600A30D890BD22E0130A136A00C890BD72E9C
:101DB60020082104031DE02EE12EC92E2508A100CE
:101DC6002408A0000800200031083302A6003208CB
:101DD600343BA70031082F02A0003208303BA10097
:101DE60035083702A2003608383BA3008E31C626D6
:101DF6008E3120002108A9002008A80087317A2703
:101E06008E31200026083507080020002008210012
:101E16009E009C013F309D0013141318132F142F9E
:101E2600102F0C082000A2000230A236890B182FB2
:101E36002208A300A40121000D082000A500A60188
:101E46000630A535A60D890B242F23082504A700E7
:101E560024082604A8002708A0002808A1000800D6
:101E66002000A30023080F39A0000430A035890BF9
:101E7600392F2308A1000430A136890B3F2F2108F2
:101E86000F392004A2002208A30023083339A0003A
:101E96000230A035890B4C2F2308A1000230A13651
:101EA600890B522F210833392004A2002208A300EF
:101EB60023085539A0000130A035890B5F2F233642
:101EC60055392004A1002108A30023080800FF308B
:101ED60020009100FF309200FF309300EF30940015
:101EE600FF3095003E00B801C301C330CE00D901D2
:101EF600E401CF30B900FF30C4000430CF00013018
:101F0600DA00E5012000A0011030A4002408A10099
:101F16004030A5002508A20024308E3197268F3147
:101F26002000931211128E314B268F3115303E0050
:101F3600A5008E3152268F318B170B172E000F10EE
:101F4600191408008F316A278F318E3163268F313D
:101F56008131D9218F318C302000A0000030A100C2
:101F66008E315A268F315A302000CC004C08D800CA
:101F7600CD01CE010C167F3020005606031DC42F5E
:101F8600C52FCE2F5F305506031DCA2FCB2FCE2F60
:101F96008331CA238F31003020008C1A0130CF00E4
:101FA6004F080319D72FD82FDC2F0130CC004C084F
:101FB600CE074F084D060319E12FE22FE32FCE017E
:101FC6004F08CC004C08CD0003304E02031CEC2F0A
:101FD600ED2FF62FF6010930CC004C08D000FF306B
:101FE60023008C00F501780885312B258F31873148
:0A1FF60010278F31BE2F81319F2983
:020000040001F9
:0A000E008C3FFE379F3FFF3FFF3F8E
:00000001FF
