:020000040000FA
:0400000081319E2983
:100008007E1480312E000F1C0A280B2887298D3179
:10001800B1258031F2007208F4004129803074065D
:10002800031D172818281A280F1651290F125129AD
:1000380080307406031D212822282528EF01EF0AA5
:100048005129EF01512980307406031D2C282D28D1
:100058003028F901F90A5129F9015129803074062B
:10006800031D372838284228DC01DD01DE01603015
:10007800F2007208DF00E001E1015129DC01DD0135
:10008800DE012030F2007208DF003F2820006E08F1
:10009800F200F3017308003A031953285129720832
:1000A800223A03192728103A03193228703A0319FB
:1000B8001228803A03191C28303A0319512951296A
:1000C800512920006E08F200F3017308003A031961
:1000D8006E2851297208423A03196428B03A031964
:1000E80051295129790803197A287B288F28FF304C
:1000F800F20072082000DC00FF30F2007208DD0018
:10010800C030F2007208DE00DF01E0015A30F20070
:100118007208E10051292000DC01DD01DE01DF0168
:10012800E0015A30F2007208E100512979080319F8
:100138009E289F288F287B285A3086316826803150
:100148007408F20072082000EE0051295A308631F6
:1001580068268031A4282000DC01DD01DE01DF01F2
:10016800E001E101A428C030F20072082000DC00A0
:100178004030F2007208DD0079080319C428C52848
:10018800CA288030F2007208DE00CB28DE01403039
:10019800F2007208DF008030F2007208E000E1012E
:1001A80051292000DC01DD018030F2007208DE00F8
:1001B8008030F2007208DF008030F2007208E00040
:1001C8005030F2007208E10051292000DC01DD0105
:1001D8004030F2007208DE00DF018030F200720861
:1001E800E00040282000DC01DD01DE012030F200C3
:1001F8007208DF00E001E101A4282000DC01DD0134
:10020800DD0AFF30F2007208DE00FF30F2007208EB
:10021800DF00FF30F2007208E000FF30F2007208E1
:10022800E10051297408F200F3017308003A031938
:100238001E2951297208023A03197628103A03191F
:100248009A28303A0319AF28103A0319F628703A59
:100258000319A028203A0319D528C03A0319B7284A
:10026800103A03190129703A0319AA28203A0319E8
:10027800E928103A03198F2851297708F200F30169
:100288007308003A0319492916297208033A031911
:100298004A28073A03196528162920006F08031908
:1002A800562957295C29CF30F2007208DA006A29EA
:1002B800790803196029612966299E30F2007208BD
:1002C800DA006A298230F2007208DA0077085A3EAA
:1002D8008600870101088D31A6258031200052084B
:1002E80077020318782979297D290130F2007208EC
:1002F800F7070C12003200320032003220000C16D0
:100308002E000F109C29901E8A298B299C292000D9
:100318008F1E8F29902996298F1275085002250063
:1003280098009A298F167508250098002E009012BB
:100338007E1009008131A0298731FE278131F9001B
:100348002F3084008E3085005030860000308700C2
:100358000030FF001E308D31E3258131F0308400FC
:10036800233085000030FE000430FF008D31D72592
:100378008131F501F601F701F801EE01EF01A03036
:100388008400003085004030FE000030FF008D31D1
:10039800D72581317E1020008F31A12F60308D311B
:1003A800EF2581312000B9003908C20061308D3154
:1003B800EF2581312000B9003908C30062308D3142
:1003C800EF2581312000B9003908C40063308D3130
:1003D800EF2581312000B9003908C50064308D311E
:1003E800EF2581312000B9003908C60065308D310C
:1003F800EF2581312000B9003908C70066308D31FA
:10040800EF2581312000B9003908C80067308D31E7
:10041800EF2581312000B9003908C900CA01CB0194
:1004280020004B08803AB90080303902031D1E2A8B
:1004380042084A020318212A222A2F2AF0302000D3
:10044800B9002630BA004A08390786004B083A3DF9
:10045800870081017C2A20004B08803A803C031DDC
:10046800372A4A08430203183A2A3B2A4D2AF03011
:100478002000B9002630BA004A083907BB004B08EB
:100488003A3DBC003B0886003C088700FF308100ED
:100498007C2A20004B08B0004A08AF004208B90087
:1004A800BA013908B1003A08B2004308BB00BC01E0
:1004B8003B08B3003C08B4000030B500B600FF307C
:1004C800B7000030B8008E316D2681312000BD00A4
:1004D800F030BE002630BF004A083E07C0004B0877
:1004E8003F3DC10040088600410887003D08810063
:1004F8004B08803AB90080303902031D852A440828
:100508004A020318882A892A962AF0302000B9005E
:100518002530BA004A08390786004B083A3D87005B
:100528008101E32A20004B08803A803C031D9E2A63
:100538004A0845020318A12AA22AB42AF03020004A
:10054800B9002530BA004A083907BB004B083A3DC4
:10055800BC003B0886003C088700FF308100E32A86
:1005680020004B08B0004A08AF004408B900BA019F
:100578003908B1003A08B2004508BB00BC013B0885
:10058800B3003C08B4000030B500B600FF30B70037
:100598000030B8008E316D2681312000BD00F0306A
:1005A800BE002530BF004A083E07C0004B083F3D4B
:1005B800C10040088600410887003D0881004B08BB
:1005C800803AB90080303902031DEC2A46084A02F5
:1005D8000318EF2AF02AFD2AF0302000B900243051
:1005E800BA004A08390786004B083A3D870081015E
:1005F8004A2B20004B08803A803C031D052B4A08F3
:1006080047020318082B092B1B2BF0302000B900D8
:100618002430BA004A083907BB004B083A3DBC00F1
:100628003B0886003C088700FF3081004A2B2000E9
:100638004B08B0004A08AF004608B900BA013908AB
:10064800B1003A08B2004708BB00BC013B08B30040
:100658003C08B4000030B500B600FF30B7000030E9
:10066800B8008E316D2681312000BD00F030BE000B
:100678002430BF004A083E07C0004B083F3DC10078
:1006880040088600410887003D0881004B08803AF1
:10069800B90080303902031D532B48084A02031859
:1006A800562B572B642BF0302000B9002330BA00AA
:1006B8004A08390786004B083A3D87008101B12B6B
:1006C80020004B08803A803C031D6C2B4A084902E5
:1006D80003186F2B702B822BF0302000B9002330C9
:1006E800BA004A083907BB004B083A3DBC003B0832
:1006F80086003C088700FF308100B12B20004B08A2
:10070800B0004A08AF004808B900BA013908B1007A
:100718003A08B2004908BB00BC013B08B3003C08DA
:10072800B4000030B500B600FF30B7000030B800A4
:100738008E316D2681312000BD00F030BE0023309F
:10074800BF004A083E07C0004B083F3DC1004008B3
:100758008600410887003D0881000130CA07003043
:10076800CB3D4B08803AB90081303902031DBE2BBE
:1007780000304A02031CC12BC22B142A08008B1319
:100788000B1310302000A0000030A1008731D327C0
:10079800833120002008A9002908AA001030A000F1
:1007A8000030A1008731D327833120002008A90019
:1007B8002908AB001130A0000030A1008731D327F1
:1007C800833120002008A9002908AC001130A000BE
:1007D8000030A1008731D327833120002008A900E9
:1007E8002908AD001630A0000030A1008731D327BA
:1007F800833120002008A9002908AE001630A00087
:100808000030A1008731D327833120002008A900B8
:100818002908AF001730A0000030A1008731D32786
:10082800833120002008A9002908B0001730A00053
:100838000030A1008731D327833120002008A90088
:100848002908B10000308531242583316F3020001C
:100858005906031D302C312C4C2C3F305806031DF3
:10086800362C372C4C2CAA01FF30A9002908AB00E4
:10087800AC01FF30A9002908AD00AE01FF30A90086
:100888002908AF00B001FF30A9002908B100DA2C0F
:100898007F305906031D512C522C592CCF30580645
:1008A800031D572C582C592CDA2C1030A00000307E
:1008B800A1008731D327833120002008A900290807
:1008C800B2001130A0000030A1008731D327833156
:1008D80020002008A9002908B3001630A000003025
:1008E800A1008731D327833120002008A9002908D7
:1008F800B4001730A0000030A1008731D32783311E
:1009080020002008A9002908B50033082D02031883
:100918008E2C8F2C932C3308A9002908AD002C08A5
:1009280033020318982C992C9D2C3308A900290808
:10093800AC0032082B020318A22CA32CA72C3208D7
:10094800A9002908AB002A0832020318AC2CAD2CE8
:10095800B12C3208A9002908AA0035083102031869
:10096800B62CB72CBB2C3508A9002908B1003008D3
:1009780035020318C02CC12CC52C3508A90029083C
:10098800B00034082F020318CA2CCB2CCF2C340803
:10099800A9002908AF002E0834020318D42CD52C3E
:1009A800262C3408A9002908AE00262C2A08A900FC
:1009B8002908A00060308E318F26833120002B0853
:1009C800A9002908A00061308E318F2683312000CC
:1009D8002C08A9002908A00062308E318F268331A7
:1009E80020002D08A9002908A00063308E318F2629
:1009F800833120002E08A9002908A00064308E3118
:100A08008F26833120002F08A9002908A00065300F
:100A18008E318F26833120003008A9002908A000D4
:100A280066308E318F26833120003108A9002908CD
:100A3800A00067308E318F2683318B170B17080083
:100A48002000A20000308C1B01302100C9000030BA
:100A580020000C1B01302100CB00003020000D18B5
:100A680001302100C800003020008D18013021001D
:100A7800CA00003020000F1801302100CD000030DE
:100A880020000E1901302100CE00003020000D1B7F
:100A980001302100CC00003020008D1B01302100E6
:100AA800CF00003020000C1801302100C0000030B9
:100AB80020008C1901302100C200003020000C19E0
:100AC80001302100C100003020008C1801302100C5
:100AD800C300003020000D1A01302100C40000308E
:100AE80020008D1A01302100C600003020000D19A9
:100AF80001302100C500003020008D19013021008F
:100B0800C70008307802031C8A2D8B2D8C2DF80124
:100B18007808C83E860087010108031D942D952D8D
:100B28009E2D01302000A0007808A83E860087018D
:100B3800200881077808C03E860087010108031D48
:100B4800A62DA72DB02D01302000A0007808A03ECA
:100B580086008701200881077808B83E860087014B
:100B68007808C83E84008501000801060319BD2DD8
:100B7800BE2DD92D7808A83E860087018101013055
:100B88002000A000780AC92DA035890BC82D20089F
:100B9800A1002108D90422080319D32DD42DD92D59
:100BA8007808D83E8600870181017808B03E860023
:100BB80087017808C03E84008501000801060319F2
:100BC800E62DE72D022E7808A03E860087018101D8
:100BD80001302000A000780AF22DA035890BF12DF4
:100BE8002008A1002108D80422080319FC2DFD2D96
:100BF800022E7808D03E8600870181017808A83E39
:100C08008600870103300102031C0B2E0C2E262EB2
:100C180001302000A000780A122EA035890B112E71
:100C28002008FF3AA1002108D905220803191D2E22
:100C38001E2E262EFF30A0007808D83E8600870199
:100C4800200881007808A03E860087010330010251
:100C5800031C2F2E302E4A2E01302000A000780AC7
:100C6800362EA035890B352E2008FF3AA100210821
:100C7800D80522080319412E422E4A2EFF30A00023
:100C88007808D03E86008701200881007808C83E91
:100C98008600870101082000A0007808B83E860079
:100CA8008701200881007808C03E86008701010876
:100CB800A0007808B03E8600870120088100013036
:100CC800A0002008F8070800F1000530F0007008BF
:100CD8002000D2005908F0007108023E8600870102
:100CE800700881005808F0007108033E86008701EB
:100CF800700881005708F0007108043E86008701DB
:100D0800700881005608F0007108053E86008701CA
:100D1800700881005508F0007108063E86008701BA
:100D2800700881005408F0007108073E86008701AA
:100D38007008810079080319A22EA32E082F1430F9
:100D4800F0007008D20021005A08F0007108083E2F
:100D580086008701700881005808F0007108093E74
:100D680086008701700881005B08F00071080A3E60
:100D780086008701700881005908F00071080B3E51
:100D880086008701700881005308F00071080C3E46
:100D980086008701700881005208F00071080D3E36
:100DA80086008701700881005108F00071080E3E26
:100DB80086008701700881005008F00071080F3E16
:100DC80086008701700881005508F0007108103E00
:100DD80086008701700881005408F0007108113EF0
:100DE80086008701700881005708F0007108123EDC
:100DF80086008701700881005608F0007108133ECC
:100E08008600870170088100080010302000A000CB
:100E18000030A1008731D3278731F0302000A900A6
:100E28002630AA0020082907860021082A3D8700C5
:100E380001088E31B42687312000AB002B08D5007D
:100E48001130A0000030A1008731D3278731F0305E
:100E58002000A9002530AA002008290786002108BB
:100E68002A3D870001088E31B42687312000AB0067
:100E78002B08D4001630A0000030A1008731D327FA
:100E88008731F0302000A9002430AA002008290763
:100E9800860021082A3D870001088E31B426873153
:100EA8002000AB002B08D7001730A0000030A100AD
:100EB8008731D3278731F0302000A9002330AA00DA
:100EC80020082907860021082A3D870001088E315D
:100ED800B42687312000AB002B08D600080020007C
:100EE800AC01A71F782F792F802FA609A709A60A7A
:100EF8000319A70AAC01AC0AA91F832F842F8D2FD1
:100F0800A809A909A80A0319A90A0130AA002A08E8
:100F1800AC06AD01AE01260827040319942F952FBE
:100F2800C42FAB01AB0AA12F0130A635A70D890B41
:100F3800992F0130AA002A08AB07A71FA42FA52FB5
:100F4800982F0130AD35AE0D890BA62F2708290241
:100F5800031DB02F26082802031CB32FB42FB92F66
:100F68002608A8022708A93B2D140130A736A60C8D
:100F7800890BBA2F0130AB02031DC32FC42FA52F35
:100F88002C080319C82FC92FCE2FAD09AE09AD0AF9
:100F98000319AE0A2E08A7002D08A6000800200095
:100FA800200821009E009C013F309D001314131857
:100FB800DE2FDF2FDB2F0C082000A2000230A23624
:100FC800890BE32F2208A300A40121000D082000AB
:100FD800A500A6010630A535A60D890BEF2F23081D
:100FE8002504A70024082604A8002708A00028082C
:060FF800A1000800013415
:101B4C00F000700823008C00080023000F1CAF2D40
:101B5C00B02DAB2D08008D31AB258D3123000C0839
:101B6C000800553030009F00AA309F009E140800DA
:101B7C0055303D008F00AA308F008F010800553082
:101B8C003D008F00AA308F0001308F000800043018
:101B9C0021009300940195019A013F30980093170E
:101BAC0008006400800101310130FE020030FF3B6F
:101BBC007F087E04031DD82D0034FE0012001E0089
:101BCC000130FE020030FF3B7F087E04031DE42D34
:101BDC0000342000A10030001E17F0309B002000C4
:101BEC00210830009A001E141C082000A0002008B8
:101BFC00A200220808002000A300231D062E072E99
:101C0C000B2E220823008F000F2E20082204230005
:101C1C008F002000230821042300900008002000DE
:101C2C009412FE30A20020082202F50021090318AC
:101C3C00890AF60050082500980001309C00A0305D
:101C4C009B0003309D00E0309A002E009A169012F3
:101C5C0008000134003409340334F734F734F73412
:101C6C00F734FF34FF349E345A34003400340034DB
:101C7C0000340034003400340034003400340034B8
:101C8C0000340034003400340034003400342000BC
:101C9C00A401A501201C532E542E582E2208A40753
:101CAC002308A53D0130A235A30D890B592E013017
:101CBC00A136A00C890B5E2E20082104031D672E73
:101CCC00682E502E2508A1002408A0000800200032
:101CDC0031083302A6003208343BA70031082F022A
:101CEC00A0003208303BA10035083702A2003608AC
:101CFC00383BA3008E314D268E3120002108A900DF
:101D0C002008A800873173278E312000260835075C
:101D1C0008002000A10000308B1B0130A2008B13A7
:101D2C0030001E171E15F0309B00200021083000DB
:101D3C009A002000200830009C008D31B7258E3190
:101D4C0030009E18AA2EAB2EA62E1E1120002208A3
:101D5C000319B12EB22EB32E8B1708002000A3004E
:101D6C0023080F39A0000430A035890BBA2E2308A4
:101D7C00A1000430A136890BC02E21080F39200494
:101D8C00A2002208A30023083339A0000230A0359A
:101D9C00890BCD2E2308A1000230A136890BD32E3E
:101DAC00210833392004A2002208A3002308553946
:101DBC00A0000130A035890BE02E233655392004C4
:101DCC00A1002108A300230808007A302000A500F8
:101DDC00C130A4008130890BF12EA40BF12EA50B80
:101DEC00F12E003204302000A0000030A1008F3111
:101DFC005E278E317A302000A500C130A4008130DE
:101E0C00890B062FA40B062FA50B062F00320430CE
:101E1C002000A0000030A1008F315E278E317A3077
:101E2C002000A500C130A4008130890B1B2FA40B0E
:101E3C001B2FA50B1B2F00320800FF302000910038
:101E4C00FF309200FF309300EF309400FF3095008C
:101E5C003E00B801C301C330CE00D901E401CF303C
:101E6C00B900FF30C4000430CF000130DA00E501C6
:101E7C002000A0011030A4002408A1004030A500CF
:101E8C002508A20024308E3101268F3120009312B8
:101E9C0011128D31BE258F3115303E00A5008D31CC
:101EAC00C5258F318B170B172E000F101914080036
:101EBC0000302000A2000130A30020082202F5000F
:101ECC002108233BF6002E009A1220008F1E6F2F44
:101EDC00702F762F8F1275085002250098007A2FDC
:101EEC008F167508250098002E009A167A3020005F
:101EFC00A300C130A2008130890B822FA20B822F4C
:101F0C00A30B822F00327430F5000030F6002E0047
:101F1C009A1220008F1E932F942F9A2F8F127508D0
:101F2C005002250098009E2F8F16750825009800EA
:101F3C002E009A1608008F3123278F318D31CD2535
:101F4C008F318131D2218F318C302000A0000030B4
:101F5C00A1008E3115268F315A302000CC004C0850
:101F6C00DB00CD01CE010C168E31EB268F317F308C
:101F7C0020005906031DC32FC42FCD2F5F305806E8
:101F8C00031DC92FCA2FCD2F8331C3238F310030AE
:101F9C0020008C1A0130CF004F080319D62FD72FF1
:101FAC00DB2F0130CC004C08CE074F084D0603192F
:101FBC00E02FE12FE22FCE014F08CC004C08CD00D2
:101FCC0003304E02031CEB2FEC2FF62FF7010930D8
:101FDC00CC004C08D200FF3023008C002000EE0116
:101FEC007908853124258F31873109278F31BA2F14
:041FFC0081319E2968
:020000040001F9
:0A000E008C3FFE379F3FFF3FFF3F8E
:00000001FF
